:020000040800F2
:1000000000500020911B0008891700088D17000878
:1000100091170008951700089917000800000000C4
:10002000000000000000000000000000A117000810
:100030009D17000800000000A5170008D51B000848
:10004000D51B0008D51B0008D51B0008D51B0008D0
:10005000D51B0008D51B0008E9170008C1170008C8
:10006000D51B0008D51B0008D51B0008D51B0008B0
:10007000D51B0008D51B0008D51B0008D51B0008A0
:10008000D51B0008D51B0008D51B0008D51B000890
:10009000D51B0008D51B0008D51B0008A9170008B0
:1000A000D51B0008D51B0008D51B0008D51B000870
:1000B0005119000811180008D51B0008D51B0008AD
:1000C000D51B0008D51B0008D51B0008D51B000850
:1000D000D51B0008D51B0008D51B0008D51B000840
:1000E000D51B0008D51B0008D51B00080000000028
:1000F0000000000000000000000000000000000000
:0C01000000000000000000005FF808F1A3
:10010C000FB400B583B004AA08CA0493019200206E
:10011C00191C00F089FB03B008BC04B01847C0469A
:10012C0070B5051C0C1C101C002A03D00E22835E1B
:10013C00013302D0002C14D11CE0828982239B0055
:10014C001A42F7D00668002909D0311C221C2B78E2
:10015C000B7001310135013A002AF8D136190660CD
:10016C0008E0287801350006001601F04BF8013C38
:10017C00002CF6D170BC01BC0047000030B581B03A
:10018C00041C00F0A3FB051C201C291C0022FFF7FB
:10019C00C7FF0A2001F036F8281C01B030BC02BCA5
:1001AC000847C046F0B55F4656464D464446F0B447
:1001BC00AFB002908A461E1C904600220492089210
:1001CC0000E0099E42461378002B09D0252B07D05E
:1001DC00444601342378002B03D0252B01D0F8E7BB
:1001EC0044464346E51A002D07D04046291C52468A
:1001FC00FFF796FF049A521904920023E356002B42
:10020C0000D1FEE20134A04600226B46B7331A70CF
:10021C000392059201235B42069300E01E1C4246AA
:10022C0012781206121693460123984400E00591A9
:10023C005B46203B582B00D930E29B00C74A9B58A9
:10024C009F46C74A08928FE16A46B7320023D356BD
:10025C00002BE4D120231370E1E70123039A1A4306
:10026C000392DCE7331D36680596002ED6DA72420F
:10027C0005921E1C0423039A1A430392CFE72B22E8
:10028C006B46B7331A70CAE7424613780122904482
:10029C001B061B162A2B06D09B461A1C303A092A21
:1002AC000DD900211AE0331D36680696002E04DAAB
:1002BC001E1C01235B420693B1E71E1CAFE7002115
:1002CC008B005B185B0099184246127812061216C6
:1002DC00934601239844303A092AF1D90029069112
:1002EC00A6DA012252420692A2E78023039A1A430D
:1002FC00039294E700215B46303B8A00521852006F
:10030C00991843461B781B061B169B4601229044EA
:10031C00303B092B8BD8EEE74023039A1A43039208
:10032C007DE742460023D3566C2B06D1012398441B
:10033C001023039A1A43039271E71023039A1A436A
:10034C0003926CE71023039A1A43039267E75B4608
:10035C00432B02D0039AD20610D500230C930D9395
:10036C003268029869463F310CAB00F0C9FA071CA1
:10037C00431C00D145E20436099606E0321D099271
:10038C0032686B463F331A70012700226B46B73335
:10039C001A703F236B4499462DE21023039A1A439B
:1003AC000392039BDB0603D5321D099234680BE0E4
:1003BC00039B5B0605D5321D099233681B041C1484
:1003CC0002E0331D09933468002C01DB0121ECE0C1
:1003DC0064422D226B46B7331A700121E5E0039A73
:1003EC00D20605D5331D09933368049A1A60E8E6E2
:1003FC00039B5B0606D5321D099233686A46128A46
:10040C001A80DEE6331D09933368049A1A60D8E625
:10041C001023039A1A430392039BDB0603D5321D68
:10042C000992346809E0039B5B0603D5321D0992DF
:10043C00348802E0331D099334680021B1E0321D89
:10044C00099234680223039A1A43039278239B4639
:10045C000221434A0892A4E0069C00226B46B73363
:10046C001A70331D09933668B146002E00D1BFE1D6
:10047C005A46532A02D0039BDB0643D54D460E95B4
:10048C0000230A930B93002C18DB002700250E9BEE
:10049C005A59002A1FD0029869463F310AAB00F026
:1004AC002FFA421C00D1ACE1C019A04213DC043578
:1004BC00844201D1271C0EE0071CE8E70AAB00932D
:1004CC00029800210EAA002300F040FA071C431CDE
:1004DC0000D196E10E95002F00D1EEE000250A9593
:1004EC000B956C4667340AAB00930298211C0EAA3C
:1004FC003B1C00F02BFA874200D082E1E555A14667
:10050C000795E0E0002C0CDB301C0021221C00F0D5
:10051C009DF9002800D1D3E0871BA74200DDCFE076
:10052C00CBE0301C00F0D2F9071C64E11023039AD5
:10053C001A430392039BDB0603D5321D09923468E0
:10054C0009E0039B5B0603D5321D0992348802E057
:10055C00331D09933468012123E000005C2100085D
:10056C00C4230008AC4A0892039BDB0603D5321D5A
:10057C000992346809E0039B5B0603D5321D09928E
:10058C00348802E0331D09933468039AD20707D5E7
:10059C00002C05D00223039A1A430392022100E097
:1005AC00022100226B46B7331A70069B002B03DB2B
:1005BC008023039A9A430392002C02D1069B002BB2
:1005CC0050D0012909D001290CD302293AD0069A1E
:1005DC000792924B9946192775E0092C1CD86D4649
:1005EC00673529E067226A44914601235B429944AE
:1005FC000723234030334A461370E408002CF4D10F
:10060C00039AD20743D5302B41D001235B42994446
:10061C0030234A4613703AE06D466735013D201C85
:10062C000A2100F00FFC30312970201C0A2100F047
:10063C00CDFB041C0928F1D8013DA946231C3033FD
:10064C002B7024E067236B4499460122524291445B
:10065C000F232340089A9B5C4A4613702409002CF4
:10066C0015D0F2E7002903D067236B4499460EE0BE
:10067C00039AD20703D467236B44994607E03021D1
:10068C006A463F322723D15466226A4491466B4610
:10069C0067334A469F1A069B079314E05A46002A72
:1006AC0000D1AEE069463F310A7000226B46B73389
:1006BC001A700996894601279DE00023079302E0F2
:1006CC00069F002207923E1C079B9F4200DA1E1CCD
:1006DC006B46B7331B781B061B16002B01D001365B
:1006EC0003E0039A920700D502368423039D1D4034
:1006FC0012D1059B9C1B002C0EDD102C07DD4848ED
:10070C0010215246FFF70CFD103C102CF7DC44482E
:10071C00211C5246FFF704FD6846B7300023C35630
:10072C00002B04D001215246FFF7FAFC0CE0039A8F
:10073C00920709D568463D30302303705B46437001
:10074C0002215246FFF7ECFC802D16D1059A941B22
:10075C00002C12DD102C0ADD314B1D1C1035281C11
:10076C0010215246FFF7DCFC103C102CF7DC2C4817
:10077C001030211C5246FFF7D3FC079BDC1B002CCE
:10078C0012DD102C0ADD264B1D1C1035281C1021E7
:10079C005246FFF7C5FC103C102CF7DC20481030FB
:1007AC00211C5246FFF7BCFC4846391C5246FFF749
:1007BC00B7FC039A520712D5059B9C1B002C0EDD2F
:1007CC00102C07DD164810215246FFF7A9FC103CEF
:1007DC00102CF7DC1248211C5246FFF7A1FC331CED
:1007EC00059A964200DA131C049AD2180492E8E493
:1007FC000C4B994606273E1E00DA00260022079273
:10080C006FE704982FB03CBC90469946A246AB4685
:10081C00F0BC02BC08470000D8230008EC230008F9
:10082C00C02200080824000830B581B0041C0D1C3F
:10083C00131C054A1068211C2A1CFFF7B3FC01B0DD
:10084C0030BC02BC0847000014000020032A844678
:10085C0030B4C9B2144627D91CF0030325D11D4668
:10086C001A462B0201325D18042AFAD1604603683D
:10087C0085EA0303A3F10132DB431A4012F0803FF7
:10088C000ED003788B421ED04378421C8B421BD077
:10089C008378821C8B4217D0C378C21C8B4213D036
:1008AC00043C0430032CE2D85CB103788B4206D0B4
:1008BC00621E32B110F8013F013A8B42F9D130BCC3
:1008CC0070470020FBE702461046F8E710F0030FD4
:1008DC00014618BF00460BD108460B6801E050F8E2
:1008EC00043FA3F10132DB431A4012F0803FF6D0F3
:1008FC0003781BB110F8013F002BFBD1401A704755
:10090C0030B5054685B01C468E4651B100F096F8C0
:10091C00B0F1FF3F03D100238A2223602A6005B087
:10092C0030BD0DF10601724600F088F8F0E7C046C4
:10093C00134640F21402C2F2000270B504460D4692
:10094C00106821462A46FFF7DBFF70BD2DE9F04FFA
:10095C0089B0984602900092129F0191002952D0C2
:10096C001368B8F1000F54D003930025019C2E4658
:10097C000DF1160B039B59460298D7F800A09A5913
:10098C003B46D7F80490FFF7BBFFB0F1FF3F2BD0ED
:10099C00C0EB080240458CBF00230123AA4234BFA0
:1009AC00002303F00103BBB1019B2D186BB1002890
:1009BC0007DD00221BF80230A35401329042F9DC0F
:1009CC002418009A136804331360039A935993B153
:1009DC0004364545CED303E0C7F800A0C7F8049011
:1009EC00284609B0BDE8F08F029A8A2305461360A9
:1009FC0000223A60F4E7019A0AB1009A13600023CE
:100A0C00013D3B60ECE7009B4FF0FF381B68039304
:100A1C00ABE74546E4E7C04670B5164640F2140213
:100A2C0082B0C2F2000204460D46214610682A46E6
:100A3C0000933346FFF78AFF02B070BD40F20C10F2
:100A4C0070B5C2F200000C4615461E46FFF73EFF7D
:100A5C00012824D940F20C1042F21441C2F20000D9
:100A6C00C0F6000100F08AF9F0B9002C44D07F2DBB
:100A7C003FD9A5F18003B3F5F06F3FD205F4F863CD
:100A8C0005F03F0202209B096FEA42626FEA836322
:100A9C006FEA526262706FEA9363237003E0002C7A
:100AAC002AD00120257070BD40F20C1042F21C417E
:100ABC00C2F20000C0F6000100F060F9002840F01E
:100ACC009180CCB12B0AD9B20029EAD001F12003D4
:100ADC0001F17F02DBB2D2B20F2B8CBF00230123BA
:100AEC001E2A98BF43F00103002B67D14FF0FF3053
:100AFC00D9E725700130D6E70020D4E7A5F50063CF
:100B0C00B3F5784FC0F0BB80A5F58033B3F5F81F73
:100B1C0022D205F4E01205F47C3321460420920C19
:100B2C001B0B6FEA02726FEA43636FEA127201F8F1
:100B3C00012B05F47C626FEA5363637005F03F038D
:100B4C0092096FEA43636FEA42626FEA53638B70F8
:100B5C006FEA52624A70A6E7A5F50013B3F1787FED
:100B6C0080F0B08005F0407205F47C032146120E33
:100B7C009B0C6FEA42726FEA43636FEA52726FEA40
:100B8C00536301F8012B05F47C62637005F47C332C
:100B9C009209481C1B0B6FEA42626FEA43636FEACF
:100BAC0052626FEA53634B7005F03F0342706FEA79
:100BBC0043636FEA53638370052074E7E8B2A0F1D6
:100BCC00400280F080037C2B8CBF00230123D2B227
:100BDC003E2A98BF43F00103002B87D0607002209F
:100BEC00217060E740F20C1042F22441C2F2000086
:100BFC00C0F6000100F0C2F8C0B9002C3FF47CAF85
:100C0C002B0AD9B200293FF44CAF01F15F03DBB2E0
:100C1C005D2B3FF66BAFEAB202F15F03DBB25D2BEB
:100C2C003FF664AF2170023062703CE740F20C106A
:100C3C0042F22C41C2F20000C0F6000100F09EF816
:100C4C0000287FF42CAF002C3AD02B0A5FFA85FEDB
:100C5C00DDB2002D71D133686BB1214635601B2399
:100C6C00282201F8013B042062708C1C27334B7046
:100C7C0084F800E017E7012084F800E013E7A5F5FD
:100C8C005843B3F5006FFFF431AF05F470422146C1
:100C9C0005F47C630320120B9B096FEAC2626FEAB6
:100CAC0043636FEAD26201F8012B05F03F026FEA51
:100CBC00536363706FEA42626FEA52624A70F2E603
:100CCC000130F0E605F17C43B3F1F84FBFF40EAF01
:100CDC0005F0804205F07C532146920F1B0E6FEA03
:100CEC0082726FEA43636FEA92726FEA536301F8A0
:100CFC00012B05F47C62637005F47C03481C92099B
:100D0C009B0C441C6FEA42626FEA43636FEA5262C7
:100D1C006FEA53634B7005F47C331B0B6FEA436330
:100D2C006FEA5363437005F03F03627006206FEA6D
:100D3C0043636FEA5363A370B5E6A5F12103DBB2FD
:100D4C005D2B3FF6D3AEAEF12103DBB25D2B3FF64C
:100D5C00CDAE33687BB921460123242233600520B4
:100D6C001A3301F8013B273362708C1C4B702570D1
:100D7C0084F801E097E60220F9E7C04641EA000357
:100D8C00024613F0030F04D102680B689A4212D08A
:100D9C000246107820B917E012F8010F013198B112
:100DAC000B788342F8D0C01A704750F8042F51F8D2
:100DBC00043F9A42ECD1A2F10133D243134013F019
:100DCC00803FF2D00020EFE70B78ECE7002934D01D
:100DDC000123002210B488422CD301242407A14201
:100DEC0004D2814202D209011B01F8E7E400A142BE
:100DFC0004D2814202D249005B00F8E7884201D359
:100E0C00401A1A434C08A04202D3001B5C08224330
:100E1C008C08A04202D3001B9C082243CC08A042A1
:100E2C0002D3001BDC082243002803D01B0901D08D
:100E3C000909E3E7101C10BC704708B14FF0FF30F4
:100E4C0000F00AB80029F8D003B5FFF7C1FF0EBCBB
:100E5C004243891A1847C0467047C04682B0019079
:100E6C0002E0019B013B0193019B002BF9D102B0E5
:100E7C007047C04610B50248FFF7F0FF10BDC046E2
:100E8C00C44E0C0010B500F0FDFD00F025F800F08C
:100E9C00DFF800F049F800F041F900F019F900F022
:100EAC00D1F900F0EDF900F00DFC084801F082F8E2
:100EBC00074CC1B207482170FFF722F920780028AF
:100ECC00F1D000F011FB00232370ECE70048004048
:100EDC0018010020E0220008012010B5014601F0A5
:100EEC0027F90220012101F023F90420012101F04E
:100EFC001FF90420012101F00DF90820012101F056
:100F0C0009F91020012101F005F90120014601F039
:100F1C0001F901214FF4804001F0FCF84FF48020DE
:100F2C00012101F005F910BD2DE9704FDFF818A172
:100F3C0088B007AC03251026DFF8109140F283131C
:100F4C0050462146ADF81C308DF81F608DF81E50B0
:100F5C0000F0A8FF4FF07F0321463A4805ACADF8EE
:100F6C001C308DF81F608DF81E5000F09BFF4FF069
:100F7C00F003484606A94FF0180BADF818308DF861
:100F8C001B608DF81A5000F08DFF4FF04003504657
:100F9C002146ADF814308DF817B08DF8165000F0CE
:100FAC0081FF4FF02003504621464FF00408ADF866
:100FBC0014308DF817608DF8165000F073FF0DEBA0
:100FCC000601484602AEADF810508DF8138000F0C3
:100FDC0069FF4FF20003504603A9ADF80C308DF8B1
:100FEC000F8000F05FFF4FF4007348463146ADF8B8
:100FFC0008304FF480648DF80A508DF80BB000F077
:10100C0051FF48463146ADF808408DF80B8000F092
:10101C0049FFADF804400DEB0804504621468DF80D
:10102C0006508DF807B000F03DFF4FF400635046BA
:10103C002146ADF804308DF8078000F033FF08B07E
:10104C00BDE8708F00100140000C01400008014009
:10105C0073B501AE002401251C2330468DF80430F5
:10106C008DF805408DF806408DF8075000F0B8FD5E
:10107C001D2330468DF804308DF805408DF8065050
:10108C008DF8075000F0ACFD21464FF0006000F0E9
:10109C00D5FD4FF4E06000F099FD062368468DF80D
:1010AC0000308DF801408DF802408DF8035000F0AF
:1010BC0097FD072368466E468DF800308DF8014089
:1010CC008DF802408DF8035000F08AFD7CBDC046BF
:1010DC002DE977410121002000F042FF0125002479
:1010EC004FF01008684600958DF804408DF8058087
:1010FC008DF8065000F0ACFD2046022100F030FFC8
:10110C00022368466E4600938DF804408DF80580E6
:10111C008DF8065000F09CFDBDE87E812DE97043F2
:10112C00334C012500264EF65F29DFF8D480A580CC
:10113C00A4F80090E6806680267221464FF080402D
:10114C0000F0D6FD4FF00C03A380A4F80090E680CD
:10115C00668026724046214600F0CAFD29464FF0B3
:10116C00804000F065FE4046294600F061FE49468D
:10117C002A464FF0804000F075FE2A46404649460C
:10118C0000F070FE29464FF0804000F077FE40469C
:10119C00294600F073FE29462A464FF0804000F0A5
:1011AC0055FE2A464046294600F050FE1149124C85
:1011BC0040F2CF238B804FF063030B80CE804E80A8
:1011CC00204600F095FD0D494FF060030B804D80DB
:1011DC00CE800E81204600F0DBFD2046314600F02B
:1011EC0045FE2046294600F023FEBDE87083C0462C
:1011FC002801002074010020000800405C01002040
:10120C00000400400A2810B504460CD10C480D21EE
:10121C0000F0CCFE0A48802100F0D0FE0028F9D066
:10122C0007480A2101E00648E1B200F0BFFE04487D
:10123C00802100F0C3FE0028F9D0204610BDC04626
:10124C00003801401FB50D4C4FF4E1330093A3F56A
:10125C00E133ADF80430ADF80630ADF80830ADF838
:10126C000C3020464FF00C036946ADF80A3000F004
:10127C00ABFE2046012100F08BFE1FBD0038014063
:10128C001FB50D4C4FF4E1330093A3F5E133ADF8EA
:10129C000430ADF80630ADF80830ADF80C3020460F
:1012AC004FF00C036946ADF80A3000F08DFE204675
:1012BC00012100F06DFE1FBD0048004010B5034831
:1012CC0040F2831100F04AFE10BDC046000C0140F4
:1012DC0010B502487F2100F041FE10BD0010014006
:1012EC0010B5054C8321204600F038FE20464FF403
:1012FC00807100F031FE10BD000C014010B5054CA2
:10130C0040F20311204600F029FE2046802100F017
:10131C0023FE10BD000C014010B5054C40F28111AC
:10132C00204600F01BFE2046022100F015FE10BDE9
:10133C00000C014010B5054C4FF4C171204600F073
:10134C000DFE2046012100F007FE10BD000C0140EF
:10135C0010B5054C4021204600F000FE20463F21F0
:10136C0000F0FAFD10BDC0460010014010B5054C50
:10137C006F21204600F0F2FD2046102100F0ECFD1C
:10138C0010BDC0460010014010B5054C2721204669
:10139C0000F0E4FD2046582100F0DEFD10BDC046F3
:1013AC000010014010B5054C7D21204600F0D6FD03
:1013BC002046022100F0D0FD10BDC04600100140B7
:1013CC0010B5054C6D21204600F0C8FD20461221B9
:1013DC0000F0C2FD10BDC0460010014010B5054C18
:1013EC006621204600F0BAFD2046192100F0B4FD1C
:1013FC0010BDC0460010014010B5054C4F212046D1
:10140C0000F0ACFD2046302100F0A6FD10BDC0461A
:10141C000010014010B5054C5B21204600F09EFDEC
:10142C002046242100F098FD10BDC046001001405C
:10143C0010B5054C0621204600F090FD2046792180
:10144C0000F08AFD10BDC0460010014010B5054CDF
:10145C003F21204600F082FD2046402100F07CFD1B
:10146C0010BDC04600100140062810B529D00CDC78
:10147C0003281DD004DC012814D0022832D114E03A
:10148C00042818D005282DD118E0092822D004DC16
:10149C00072819D0082825D119E00A281DD064285E
:1014AC0020D11DE0FFF7D2FF1CE0FFF7C1FF19E0D0
:1014BC00FFF7B0FF16E0FFF79FFF13E0FFF78EFF7B
:1014CC0010E0FFF77DFF0DE0FFF76CFF0AE0FFF780
:1014DC005BFF07E0FFF7FCFE04E0FFF747FF01E0CE
:1014EC00FFF736FF10BDC046A0F10A03DBB2012B9B
:1014FC0070B505460BD9152809D0142807D01F281C
:10150C0005D01E2803D0292801D028281FD1294610
:10151C005B48FEF7F5FDFFF7ADFC5A4B00221D6052
:10152C00594B1A60594B1A60594B1A60594B1A6037
:10153C00594B1A60594B1A60594B1A60594B1A6027
:10154C00594B1A60594B1A60FFF794FC96E0A0F1C6
:10155C003003DBB2092B4CD8504B00221A60504B95
:10156C004D4E1A604F4B46481A604F4B29461A6035
:10157C004E4B1A60FEF7C4FD33687BB9424CA5F1A3
:10158C002F032360FFF776FCFFF774FC48482168B3
:10159C00FEF7B6FD3368013333606FE0012B09D1E0
:1015AC003A4CA5F12F032360FFF764FCFFF762FCB4
:1015BC0040480AE0022B10D1354CA5F12F032360D3
:1015CC00FFF758FCFFF756FC3B482168FEF798FDE7
:1015DC00314A13680133136050E0032B4ED12D4C6C
:1015EC00A5F12F032360FFF745FCFFF743FC3348BD
:1015FC00EBE77B281AD13248FEF7C0FD224B0022C4
:10160C001A60224B1A60224B1A60224B1A60224B32
:10161C001A60224B1A60224B1A60224B1A60224B22
:10162C001A60224B1A60FFF749FE27E0642825D187
:10163C00154B00221A60154B1C4C1A60144B1A6087
:10164C00144B1A60144B1A60226812B90132134BF6
:10165C000CE0012A01D1124B08E0022A02D1013A16
:10166C00104B03E0032A09D10F4B01221A60FFF73C
:10167C0001FCFFF7FFFB23680133236070BDC046FC
:10168C00F52200083C0100204801002054010020F4
:10169C00440100206C0100202401002040010020A6
:1016AC00340100205001002070010020380100207E
:1016BC000623000815230008242300083323000800
:1016CC004223000810B54FF48051264800F03EFC30
:1016DC00254C4FF400512060224800F037FC234B7E
:1016EC004FF4804118601F4800F030FC204B4FF441
:1016FC00004118601B4800F029FC1E4B1860FFF7D6
:10170C00B9FB236823B91C48102100F025FC03E029
:10171C001948102100F022FC144B1B6823B9164801
:10172C00202100F019FC03E01348202100F016FCE6
:10173C000F4B1B6823B91048402100F00DFC03E04F
:10174C000D48402100F00AFC0A4B1B6823B90A48DB
:10175C00802100F001FC03E00748802100F0FEFB33
:10176C0010BDC046000C0140840100208C010020FB
:10177C008801002080010020000801407047C0460D
:10178C00FEE7C046FEE7C046FEE7C046FEE7C046A1
:10179C007047C0467047C0467047C04610B54FF4FE
:1017AC00007000F091FA18B14FF4007000F09AFA42
:1017BC0010BDC04610B5022000F086FA40B10548B5
:1017CC00FEF7DCFC044B1F221A60022000F08AFAA0
:1017DC0010BDC046462300083C01002010B5012076
:1017EC0000F072FA40B10548FEF7C8FC044B152214
:1017FC001A60012000F076FA10BDC046572300088D
:10180C003C01002070B54248012100F03BFB002850
:10181C007DD0404C01213E4800F040FB216800295E
:10182C0033D03D48FEF76CFC23680B2B05D0152BF1
:10183C0003D01F2B01D0292B03D13848202100F0D5
:10184C008BFB344B1B680A2B05D0142B03D01E2B9F
:10185C0001D0282B03D13148202100F07FFB304CE4
:10186C004FF4487323804FF448712E48FEF748FC20
:10187C002D4B2E48196801311960FEF741FC238865
:10188C002B492C48CB8000F083FA22490B680B2B98
:10189C0001D00A2B03D1244D2B68012B0CE0152B06
:1018AC0001D0142B03D1204D2B68642B04E01F2B8B
:1018BC000BD11D4D2B68372B29D11F4B184C0022F7
:1018CC001A602A600A60228012E01E2B03D1164D8A
:1018DC002B68372B06E0292B01D0282B17D1124D62
:1018EC002B681E2B13D10E4C00232B600B60238016
:1018FC001248FEF743FC2188114889B22A68FEF78A
:10190C00FFFB23880A490B48CB8000F041FA70BDDD
:10191C00000400403C01002068230008000C01403A
:10192C001A0100207D2300084C0100208C230008A4
:10193C005C01002000080040580100209D23000895
:10194C00B123000810B54FF08040012100F09AFA45
:10195C00002800F0828001214FF0804000F09EFAB8
:10196C003E4B1A6801321A603D4B196851B93D4B18
:10197C001B683BB93C4B1B6823B93C4B19680029CD
:10198C003BD130E012F0030F06D1002965D0FFF7F0
:10199C00D1FC334B18685EE0354B02EA0303002B95
:1019AC0005DA013B6FEA83736FEA93730133012B02
:1019BC0006D12C4C2368002B4FD0FFF7ADFC10E068
:1019CC00022B06D1284C2368002B46D0FFF796FC3F
:1019DC0007E0032B41D1274C2368002B3DD0FFF7A8
:1019EC007FFC206837E0244B1B6833B9234B1B6802
:1019FC001BB9234B1B68002B2FD012F0030F04D103
:101A0C0001292AD1FFF796FC24E0194B02EA0303C3
:101A1C00002B05DA013B6FEA83736FEA9373013392
:101A2C00012B06D1144B1B68012B16D1FFF774FC4C
:101A3C0010E0022B06D1114B1B68012B0DD1FFF7C7
:101A4C005DFC07E0032B08D10D4B1B68012B04D167
:101A5C00FFF746FC6420FFF707FD10BD9C0100203A
:101A6C0048010020540100204401002040010020C6
:101A7C00030000806C010020340100205001002084
:101A8C00700100203B4A82B0136843F001031360DD
:101A9C005168394B01EA03035360136823F08473D4
:101AAC0023F480331360136823F48023136053688A
:101ABC0023F4FE0353604FF41F039360A3F51F033D
:101ACC0001930093136843F480331360294B1B6814
:101ADC0003F400330093019B01330193009B1BB96A
:101AEC00019BB3F5A06FF1D1224B1B6813F40033AB
:101AFC0018BF01230093009B012B35D11F4A13689B
:101B0C0043F010031360136823F00303136013688E
:101B1C0043F002031360A2F580525368536053687C
:101B2C005360536843F480635360536823F47C130D
:101B3C005360536843F488135360136843F0807305
:101B4C0013600C4A136813F0007FFAD0536823F02B
:101B5C0003035360536843F002035360054B5B6807
:101B6C0003F00C03082BF9D1054B4FF000629A607F
:101B7C0002B07047001002400000FFF80020024045
:101B8C0000ED00E0002103E00A4B5B5843500431A8
:101B9C0009480A4B42189A42F6D3094A02E000233C
:101BAC0042F8043B074B9A42F9D3FFF76BFFFFF760
:101BBC0069F9704734240008000000201801002047
:101BCC0018010020A4010020FEE7000040F0BE60D8
:101BDC00024B40F42020D8607047C04600ED00E076
:101BEC00C37890F800C0D3B1124B4178DA68D24375
:101BFC00C2F30222C2F1040399400F23D34082782E
:101C0C0013400B430C4A1B01DBB2624482F80033D5
:101C1C000CF01F0201234FEA5C11934006E00CF01C
:101C2C001F02012393404FEA5C112031024A42F813
:101C3C002130704700ED00E000E100E021F0604150
:101C4C0021F07F01014B01439960704700ED00E0EA
:101C5C00837910B590F804C004684BB31949E2437A
:101C6C000B6802EA03030B604B681A404A600CF1E4
:101C7C00804202F5823213682343136004688B6838
:101C8C00E24302EA03038B60CB6840791A401028C8
:101C9C00CA6006D18B6823438B60CB682343CB602F
:101CAC000EE000F1804202F582321368234306E015
:101CBC000CF1804202F58232136823EA04031360AC
:101CCC0010BDC04600040140054B1A685B69034017
:101CDC0001D1184603E010420CBF002001207047D0
:101CEC0000040140014B58617047C046000401409C
:101CFC0003889AB2244B984212D003F500639842A1
:101D0C000ED0B0F1804F0BD0A3F59833984207D08A
:101D1C0003F58063984203D003F58063984206D1A3
:101D2C004FF68F7302EA03034A8843EA0202174B09
:101D3C0098420AD003F58063984206D04FF6FF43D1
:101D4C0002EA0303CA8843EA020202808B88838575
:101D5C000B8803850C4B98420FD003F50063984217
:101D6C000BD003F54063984207D003F5806398428B
:101D7C0003D003F58063984201D10B7A03864FF0B0
:101D8C00010383827047C046002C014000100040C4
:101D9C00038CF0B523F001031B041B0C03840C46CD
:101DAC00018C838822899DB2038B21F002019EB2A3
:101DBC00638809041343090C9BB243EA010C1B4BC7
:101DCC00278898420FD003F5006398420BD003F597
:101DDC004063984207D003F58063984203D003F523
:101DEC008063984216D163894FF6F7720CEA0202AF
:101DFC001A434FF6FB7302EA0303A2884FF6FF4126
:101E0C0043EA020CE389A28905EA010113439BB260
:101E1C0043EA01054FF68C7306EA03033B438580C6
:101E2C000383E3888386A0F820C0F0BD002C01401A
:101E3C0021B103889BB243F0010304E0038823F033
:101E4C0001031B041B0C03807047C04622B183891D
:101E5C009BB241EA030303E083899BB223EA0103AB
:101E6C0083817047018582827047C046038B23F0C3
:101E7C0008031B041B0C194301837047C94389B227
:101E8C0001827047028A838911EA02009BB203D057
:101E9C0019420CBF002001207047C046C94389B2CB
:101EAC0001827047F0B5CD780E8815F0100F18BF71
:101EBC008B7805F00F0718BF1F4316F0FF0F20D0CB
:101ECC0004684FF0000C012303FA0CF303EA06013B
:101EDC00994210D14FEA8C020F23934017FA02F269
:101EEC0024EA0303282D43EA020401D1416102E0F4
:101EFC00482D08BF01610CF1010CBCF1080FE2D1B7
:101F0C000460FF2E21D944684FF0000C01230CF122
:101F1C000802934003EA0601994210D14FEA8C0261
:101F2C000F23934017FA02F224EA0303282D43EA05
:101F3C00020401D1416102E0482D08BF01610CF19E
:101F4C00010CBCF1080FE1D14460F0BD836819426B
:101F5C000CBF002001207047016170474161704740
:101F6C0030B501F00305AD000F23AB40A840074C82
:101F7C008908023154F8212022EA030244F8212076
:101F8C0054F82130184344F8210030BD00000140C2
:101F9C0021B183899BB243F4005304E0838923F479
:101FAC0000531B041B0C83817047C046C905C90D27
:101FBC00818070478088C005C00D70470388194226
:101FCC000CBF002001207047038ACA8823F44053B9
:101FDC001B041B0C1343038282890B8930B50D46FD
:101FEC00898822F4B0520B43698922F00C020B430E
:101FFC001204120C9BB213438381838AAA8923F4A3
:10200C0040731B041B0C87B013430446838201A846
:10201C0000F034F8184B29689C42A38908BF049837
:10202C001BB218BF0398002B03DA192343434A0051
:10203C0002E0192343438A00B3FBF2F16420B1FBA5
:10204C00F0F31A01130900FB1311A3891BB2002B27
:10205C0006DACB003233B3FBF0F303F0070305E0F1
:10206C000B013233B3FBF0F303F00F0343EA02012D
:10207C008BB2238107B030BD0038014010B5044647
:10208C001E48436803F00C03042B02D0082B14D118
:10209C0001E01B4B12E043684268C3F38343991C75
:1020AC0012F4803F01D1174B05E0436813F4003F55
:1020BC0014BF154B124B4B4300E0144B0F482360DD
:1020CC0043681349C3F30313CB5C2268DA406260A4
:1020DC004368C3F30223CB5C32FA03F3A360436877
:1020EC00C3F3C223CB5CDA40E2604368C3F38133B1
:1020FC00C9180B7CB2FBF3F2226110BD0010024038
:10210C00001BB70000093D00808D5B0000127A00B7
:10211C000000002021B1054A936940EA030303E063
:10212C00024A936923EA000393617047001002404E
:10213C0021B1054AD36940EA030303E0024AD3699B
:10214C0023EA0003D361704700100240101C704753
:10215C0054020008A8060008A80600086602000839
:10216C00A8060008A8060008A8060008A80600088B
:10217C00A8060008A8060008700200088A020008D9
:10218C00A80600088002000894020008A8060008AF
:10219C00F602000800030008000300080003000812
:1021AC0000030008000300080003000800030008F7
:1021BC000003000800030008A8060008A806000891
:1021CC00A8060008A8060008A8060008A80600082B
:1021DC00A8060008A8060008A80600085A0300086C
:1021EC00A6030008A8060008A8060008A806000810
:1021FC00A8060008A8060008A8060008A8060008FB
:10220C00A8060008A8060008A80600081C04000878
:10221C00A8060008A8060008A80600086404000820
:10222C00A806000838050008A8060008A80600083B
:10223C0070050008A8060008A8060008A8060008F3
:10224C00A8060008A8060008A8060008A8060008AA
:10225C00A8060008A8060008A80600085A030008EB
:10226C00AE030008A8060008A8060008A806000887
:10227C0024030008AE030008A8060008A8060008FE
:10228C002E030008A8060008EA030008240400082E
:10229C004A04000850030008A8060008640400085B
:1022AC00A806000840050008A8060008A8060008B3
:1022BC004E0200082020202020202020202020203A
:1022CC002020202030303030303030303030303042
:1022DC0030303030526563656976656420646174B2
:1022EC00612069732025640A00526563656976650F
:1022FC005F646174613D25640A0075736172745F7B
:10230C00736567313D25640A0075736172745F7380
:10231C006567323D25640A0075736172745F73657D
:10232C0067333D25640A0075736172745F7365676A
:10233C00343D25640A003132330045585449315F2D
:10234C0049525148616E646C65720045585449306D
:10235C005F49525148616E646C657200706F7369AD
:10236C0074696F6E20646174612069732025640A3E
:10237C0000434352315F56616C203A2025640A00B9
:10238C00636F756E7420646F776E203A2025640A33
:10239C0000636F756E7420646F776E20636F6D7061
:1023AC006C657465004343523D25640A20636F7568
:1023BC006E743D25640A00003031323334353637C3
:1023CC003839616263646566000000003031323375
:1023DC003435363738394142434445460000000015
:1023EC0062756720696E2076667072696E74663AE3
:1023FC00206261642062617365000000286E756C58
:10240C006C29000043000000432D5554462D380024
:10241C00432D534A49530000432D4555434A500020
:08242C00432D4A495300000052
:102434000000000001020304010203040607080966
:10244400020406081800002000000000000000003C
:102454000000000000000000000000000000000078
:10246400000000000000000010240008000000002C
:102474000000000000000000000000000000000058
:102484000000000000000000000000000000000048
:102494000000000000000000000000000000000038
:1024A4000000000000000000000000000000000028
:1024B4000000000000000000000000000000000018
:1024C4000000000000000000000000000000000008
:1024D40000000000000000000000000000000000F8
:1024E40000000000000000000000000000000000E8
:1024F40000000000000000000000000000000000D8
:1025040000000000000000000000000000000000C7
:1025140000000000000000000000000000000000B7
:1025240000000000000000000000000000000000A7
:102534000000000000000000010000004300000053
:0825440000000000000000008F
:040000050800010CE2
:00000001FF
