:020000040800F2
:100000000050002065260008BD220008C12200081B
:10001000C5220008C9220008CD2200080000000007
:10002000000000000000000000000000D5220008D1
:10003000D122000800000000D9220008111F00088A
:10004000A9260008A9260008A9260008A926000854
:10005000A9260008A92600081D230008F52200088B
:10006000A9260008A9260008A9260008A926000834
:10007000A9260008A9260008A9260008A926000824
:10008000A9260008A9260008A9260008A926000814
:10009000A9260008A9260008A9260008DD220008D4
:1000A000A9260008A9260008A9260008A9260008F4
:1000B000512300086D230008A9260008A92600087E
:1000C000A9260008A9260008A9260008A9260008D4
:1000D000A9260008A9260008A9260008A9260008C4
:1000E000A9260008A9260008A9260008000000008B
:1000F0000000000000000000000000000000000000
:0C01000000000000000000005FF808F1A3
:10010C000FB400B583B004AA08CA0493019200206E
:10011C00191C00F089FB03B008BC04B01847C0469A
:10012C0070B5051C0C1C101C002A03D00E22835E1B
:10013C00013302D0002C14D11CE0828982239B0055
:10014C001A42F7D00668002909D0311C221C2B78E2
:10015C000B7001310135013A002AF8D136190660CD
:10016C0008E0287801350006001601F041F8013C42
:10017C00002CF6D170BC01BC0047000030B581B03A
:10018C00041C00F0A3FB051C201C291C0022FFF7FB
:10019C00C7FF0A2001F02CF8281C01B030BC02BCAF
:1001AC000847C046F0B55F4656464D464446F0B447
:1001BC00AFB002908A461E1C904600220492089210
:1001CC0000E0099E42461378002B09D0252B07D05E
:1001DC00444601342378002B03D0252B01D0F8E7BB
:1001EC0044464346E51A002D07D04046291C52468A
:1001FC00FFF796FF049A521904920023E356002B42
:10020C0000D1FEE20134A04600226B46B7331A70CF
:10021C000392059201235B42069300E01E1C4246AA
:10022C0012781206121693460123984400E00591A9
:10023C005B46203B582B00D930E29B00C74A9B58A9
:10024C009F46C74A08928FE16A46B7320023D356BD
:10025C00002BE4D120231370E1E70123039A1A4306
:10026C000392DCE7331D36680596002ED6DA72420F
:10027C0005921E1C0423039A1A430392CFE72B22E8
:10028C006B46B7331A70CAE7424613780122904482
:10029C001B061B162A2B06D09B461A1C303A092A21
:1002AC000DD900211AE0331D36680696002E04DAAB
:1002BC001E1C01235B420693B1E71E1CAFE7002115
:1002CC008B005B185B0099184246127812061216C6
:1002DC00934601239844303A092AF1D90029069112
:1002EC00A6DA012252420692A2E78023039A1A430D
:1002FC00039294E700215B46303B8A00521852006F
:10030C00991843461B781B061B169B4601229044EA
:10031C00303B092B8BD8EEE74023039A1A43039208
:10032C007DE742460023D3566C2B06D1012398441B
:10033C001023039A1A43039271E71023039A1A436A
:10034C0003926CE71023039A1A43039267E75B4608
:10035C00432B02D0039AD20610D500230C930D9395
:10036C003268029869463F310CAB00F0C9FA071CA1
:10037C00431C00D145E20436099606E0321D099271
:10038C0032686B463F331A70012700226B46B73335
:10039C001A703F236B4499462DE21023039A1A439B
:1003AC000392039BDB0603D5321D099234680BE0E4
:1003BC00039B5B0605D5321D099233681B041C1484
:1003CC0002E0331D09933468002C01DB0121ECE0C1
:1003DC0064422D226B46B7331A700121E5E0039A73
:1003EC00D20605D5331D09933368049A1A60E8E6E2
:1003FC00039B5B0606D5321D099233686A46128A46
:10040C001A80DEE6331D09933368049A1A60D8E625
:10041C001023039A1A430392039BDB0603D5321D68
:10042C000992346809E0039B5B0603D5321D0992DF
:10043C00348802E0331D099334680021B1E0321D89
:10044C00099234680223039A1A43039278239B4639
:10045C000221434A0892A4E0069C00226B46B73363
:10046C001A70331D09933668B146002E00D1BFE1D6
:10047C005A46532A02D0039BDB0643D54D460E95B4
:10048C0000230A930B93002C18DB002700250E9BEE
:10049C005A59002A1FD0029869463F310AAB00F026
:1004AC002FFA421C00D1ACE1C019A04213DC043578
:1004BC00844201D1271C0EE0071CE8E70AAB00932D
:1004CC00029800210EAA002300F040FA071C431CDE
:1004DC0000D196E10E95002F00D1EEE000250A9593
:1004EC000B956C4667340AAB00930298211C0EAA3C
:1004FC003B1C00F02BFA874200D082E1E555A14667
:10050C000795E0E0002C0CDB301C0021221C00F0D5
:10051C009DF9002800D1D3E0871BA74200DDCFE076
:10052C00CBE0301C00F0D2F9071C64E11023039AD5
:10053C001A430392039BDB0603D5321D09923468E0
:10054C0009E0039B5B0603D5321D0992348802E057
:10055C00331D09933468012123E00000282C000886
:10056C0040300008AC4A0892039BDB0603D5321DD1
:10057C000992346809E0039B5B0603D5321D09928E
:10058C00348802E0331D09933468039AD20707D5E7
:10059C00002C05D00223039A1A430392022100E097
:1005AC00022100226B46B7331A70069B002B03DB2B
:1005BC008023039A9A430392002C02D1069B002BB2
:1005CC0050D0012909D001290CD302293AD0069A1E
:1005DC000792924B9946192775E0092C1CD86D4649
:1005EC00673529E067226A44914601235B429944AE
:1005FC000723234030334A461370E408002CF4D10F
:10060C00039AD20743D5302B41D001235B42994446
:10061C0030234A4613703AE06D466735013D201C85
:10062C000A2100F00FFC30312970201C0A2100F047
:10063C00CDFB041C0928F1D8013DA946231C3033FD
:10064C002B7024E067236B4499460122524291445B
:10065C000F232340089A9B5C4A4613702409002CF4
:10066C0015D0F2E7002903D067236B4499460EE0BE
:10067C00039AD20703D467236B44994607E03021D1
:10068C006A463F322723D15466226A4491466B4610
:10069C0067334A469F1A069B079314E05A46002A72
:1006AC0000D1AEE069463F310A7000226B46B73389
:1006BC001A700996894601279DE00023079302E0F2
:1006CC00069F002207923E1C079B9F4200DA1E1CCD
:1006DC006B46B7331B781B061B16002B01D001365B
:1006EC0003E0039A920700D502368423039D1D4034
:1006FC0012D1059B9C1B002C0EDD102C07DD4848ED
:10070C0010215246FFF70CFD103C102CF7DC44482E
:10071C00211C5246FFF704FD6846B7300023C35630
:10072C00002B04D001215246FFF7FAFC0CE0039A8F
:10073C00920709D568463D30302303705B46437001
:10074C0002215246FFF7ECFC802D16D1059A941B22
:10075C00002C12DD102C0ADD314B1D1C1035281C11
:10076C0010215246FFF7DCFC103C102CF7DC2C4817
:10077C001030211C5246FFF7D3FC079BDC1B002CCE
:10078C0012DD102C0ADD264B1D1C1035281C1021E7
:10079C005246FFF7C5FC103C102CF7DC20481030FB
:1007AC00211C5246FFF7BCFC4846391C5246FFF749
:1007BC00B7FC039A520712D5059B9C1B002C0EDD2F
:1007CC00102C07DD164810215246FFF7A9FC103CEF
:1007DC00102CF7DC1248211C5246FFF7A1FC331CED
:1007EC00059A964200DA131C049AD2180492E8E493
:1007FC000C4B994606273E1E00DA00260022079273
:10080C006FE704982FB03CBC90469946A246AB4685
:10081C00F0BC02BC084700005430000868300008E7
:10082C008C2D00088430000830B581B0041C0D1CE0
:10083C00131C054A1068211C2A1CFFF7B3FC01B0DD
:10084C0030BC02BC0847000044000020032A844648
:10085C0030B4C9B2144627D91CF0030325D11D4668
:10086C001A462B0201325D18042AFAD1604603683D
:10087C0085EA0303A3F10132DB431A4012F0803FF7
:10088C000ED003788B421ED04378421C8B421BD077
:10089C008378821C8B4217D0C378C21C8B4213D036
:1008AC00043C0430032CE2D85CB103788B4206D0B4
:1008BC00621E32B110F8013F013A8B42F9D130BCC3
:1008CC0070470020FBE702461046F8E710F0030FD4
:1008DC00014618BF00460BD108460B6801E050F8E2
:1008EC00043FA3F10132DB431A4012F0803FF6D0F3
:1008FC0003781BB110F8013F002BFBD1401A704755
:10090C0030B5054685B01C468E4651B100F096F8C0
:10091C00B0F1FF3F03D100238A2223602A6005B087
:10092C0030BD0DF10601724600F088F8F0E7C046C4
:10093C00134640F24402C2F2000270B504460D4662
:10094C00106821462A46FFF7DBFF70BD2DE9F04FFA
:10095C0089B0984602900092129F0191002952D0C2
:10096C001368B8F1000F54D003930025019C2E4658
:10097C000DF1160B039B59460298D7F800A09A5913
:10098C003B46D7F80490FFF7BBFFB0F1FF3F2BD0ED
:10099C00C0EB080240458CBF00230123AA4234BFA0
:1009AC00002303F00103BBB1019B2D186BB1002890
:1009BC0007DD00221BF80230A35401329042F9DC0F
:1009CC002418009A136804331360039A935993B153
:1009DC0004364545CED303E0C7F800A0C7F8049011
:1009EC00284609B0BDE8F08F029A8A2305461360A9
:1009FC0000223A60F4E7019A0AB1009A13600023CE
:100A0C00013D3B60ECE7009B4FF0FF381B68039304
:100A1C00ABE74546E4E7C04670B5164640F24402E3
:100A2C0082B0C2F2000204460D46214610682A46E6
:100A3C0000933346FFF78AFF02B070BD40F23C10C2
:100A4C0070B5C2F200000C4615461E46FFF73EFF7D
:100A5C00012824D940F23C1043F29001C2F200006C
:100A6C00C0F6000100F08AF9F0B9002C44D07F2DBB
:100A7C003FD9A5F18003B3F5F06F3FD205F4F863CD
:100A8C0005F03F0202209B096FEA42626FEA836322
:100A9C006FEA526262706FEA9363237003E0002C7A
:100AAC002AD00120257070BD40F23C1043F2980111
:100ABC00C2F20000C0F6000100F060F9002840F01E
:100ACC009180CCB12B0AD9B20029EAD001F12003D4
:100ADC0001F17F02DBB2D2B20F2B8CBF00230123BA
:100AEC001E2A98BF43F00103002B67D14FF0FF3053
:100AFC00D9E725700130D6E70020D4E7A5F50063CF
:100B0C00B3F5784FC0F0BB80A5F58033B3F5F81F73
:100B1C0022D205F4E01205F47C3321460420920C19
:100B2C001B0B6FEA02726FEA43636FEA127201F8F1
:100B3C00012B05F47C626FEA5363637005F03F038D
:100B4C0092096FEA43636FEA42626FEA53638B70F8
:100B5C006FEA52624A70A6E7A5F50013B3F1787FED
:100B6C0080F0B08005F0407205F47C032146120E33
:100B7C009B0C6FEA42726FEA43636FEA52726FEA40
:100B8C00536301F8012B05F47C62637005F47C332C
:100B9C009209481C1B0B6FEA42626FEA43636FEACF
:100BAC0052626FEA53634B7005F03F0342706FEA79
:100BBC0043636FEA53638370052074E7E8B2A0F1D6
:100BCC00400280F080037C2B8CBF00230123D2B227
:100BDC003E2A98BF43F00103002B87D0607002209F
:100BEC00217060E740F23C1043F2A001C2F2000019
:100BFC00C0F6000100F0C2F8C0B9002C3FF47CAF85
:100C0C002B0AD9B200293FF44CAF01F15F03DBB2E0
:100C1C005D2B3FF66BAFEAB202F15F03DBB25D2BEB
:100C2C003FF664AF2170023062703CE740F23C103A
:100C3C0043F2A801C2F20000C0F6000100F09EF8D9
:100C4C0000287FF42CAF002C3AD02B0A5FFA85FEDB
:100C5C00DDB2002D71D133686BB1214635601B2399
:100C6C00282201F8013B042062708C1C27334B7046
:100C7C0084F800E017E7012084F800E013E7A5F5FD
:100C8C005843B3F5006FFFF431AF05F470422146C1
:100C9C0005F47C630320120B9B096FEAC2626FEAB6
:100CAC0043636FEAD26201F8012B05F03F026FEA51
:100CBC00536363706FEA42626FEA52624A70F2E603
:100CCC000130F0E605F17C43B3F1F84FBFF40EAF01
:100CDC0005F0804205F07C532146920F1B0E6FEA03
:100CEC0082726FEA43636FEA92726FEA536301F8A0
:100CFC00012B05F47C62637005F47C03481C92099B
:100D0C009B0C441C6FEA42626FEA43636FEA5262C7
:100D1C006FEA53634B7005F47C331B0B6FEA436330
:100D2C006FEA5363437005F03F03627006206FEA6D
:100D3C0043636FEA5363A370B5E6A5F12103DBB2FD
:100D4C005D2B3FF6D3AEAEF12103DBB25D2B3FF64C
:100D5C00CDAE33687BB921460123242233600520B4
:100D6C001A3301F8013B273362708C1C4B702570D1
:100D7C0084F801E097E60220F9E7C04641EA000357
:100D8C00024613F0030F04D102680B689A4212D08A
:100D9C000246107820B917E012F8010F013198B112
:100DAC000B788342F8D0C01A704750F8042F51F8D2
:100DBC00043F9A42ECD1A2F10133D243134013F019
:100DCC00803FF2D00020EFE70B78ECE7002934D01D
:100DDC000123002210B488422CD301242407A14201
:100DEC0004D2814202D209011B01F8E7E400A142BE
:100DFC0004D2814202D249005B00F8E7884201D359
:100E0C00401A1A434C08A04202D3001B5C08224330
:100E1C008C08A04202D3001B9C082243CC08A042A1
:100E2C0002D3001BDC082243002803D01B0901D08D
:100E3C000909E3E7101C10BC704708B14FF0FF30F4
:100E4C0000F00AB80029F8D003B5FFF7C1FF0EBCBB
:100E5C004243891A1847C0467047C046024B00E00F
:100E6C00013B002BFCD17047C44E0C0010B501F0B7
:100E7C00C3F91549002001F05FF901F06DFB00F09A
:100E8C0027F800F0D5F800F04BF800F037F900F037
:100E9C000FF900F0CDF900F0E9F90C4B00221A70B3
:100EAC00042001F0C9F9FFF7D9FF084B1B7813B9DF
:100EBC0000F01EFC03E0012B01D100F063FA034BA0
:100ECC00187800F0E7FFEEE7000000206701002033
:100EDC00012010B5014601F091FE0220012101F024
:100EEC008DFE0420012101F089FE0420012101F076
:100EFC0077FE0820012101F073FE1020012101F082
:100F0C006FFE0120014601F06BFE01214FF4804081
:100F1C0001F066FE4FF48020012101F06FFE10BD40
:100F2C002DE9704F3F4E88B0DFF8FCA0032510244C
:100F3C004FF4E053304607A94FF0040BDFF8EC9068
:100F4C00ADF81C308DF81F408DF81E5001F014FDCB
:100F5C004FF0F003504606A9ADF818308DF81BB0D1
:100F6C0001F00AFD4FF0F703304605A9ADF8143037
:100F7C008DF817408DF8165001F0FEFC0DEB0401B6
:100F8C004FF4407348461826ADF810308DF81340D6
:100F9C000DF108088DF8125001F0EEFC4FF0C00373
:100FAC00484603A9ADF80C308DF80F608DF80E5043
:100FBC0001F0E2FC4FF4007350464146ADF80830A6
:100FCC0004F57C748DF80A508DF80B6001F0D4FC9C
:100FDC0050464146ADF808408DF80BB001F0CCFC02
:100FEC00ADF804400DEB0B04484621468DF8065035
:100FFC008DF8076001F0C0FC4FF4006348462146B1
:10100C00ADF804308DF807B001F0B6FC50466946D7
:10101C00ADF800508DF803B001F0AEFC08B0BDE89F
:10102C00708FC0460010014000080140000C0140C8
:10103C0073B501AE002401251C2330468DF8043015
:10104C008DF805408DF806408DF8075001F032FB05
:10105C001D2330468DF804308DF805408DF8065070
:10106C008DF8075001F026FB21464FF0006001F08F
:10107C004FFB4FF4E06001F013FB062368468DF83C
:10108C0000308DF801408DF802408DF8035001F0CE
:10109C0011FB072368466E468DF800308DF8014031
:1010AC008DF802408DF8035001F004FB7CBDC04666
:1010BC002DE977410121002001F0BCFC0125002421
:1010CC004FF01008684600958DF804408DF80580A7
:1010DC008DF8065001F026FB2046022101F0AAFCF7
:1010EC00022368466E4600938DF804408DF8058007
:1010FC008DF8065001F016FBBDE87E812DE9F0411C
:10110C00364C4FF496630025A3804FF0FF33344EDA
:10111C002380E5806580257221464FF0804001F0E8
:10112C0051FB4EF65F284FF02803A380A4F80080F3
:10113C00E580658025723046214601F043FB012194
:10114C004FF0804001F0DEFB3046012101F0DAFB6C
:10115C00414601224FF0804001F0EEFB0122304667
:10116C00414601F0E9FB01214FF0804001F0F0FB1A
:10117C003046012101F0ECFB01210A464FF0804082
:10118C0001F0CEFB01210A46304601F0C9FB15499E
:10119C0044F61F63144C8B804FF048030B804FF0C8
:1011AC001003CD804B80204601F00CFB0F494FF013
:1011BC0060030B80012640F2DC53CB804E800D8106
:1011CC00204601F04FFB2046294601F0B9FB204692
:1011DC00314601F097FBBDE8F081C0465C01002070
:1011EC000004004078010020000800406801002045
:1011FC000A2810B504460CD10C480D2101F040FC16
:10120C000A48802101F040FC0028F9D007480A2147
:10121C0001E00648E1B201F033FC0448802101F002
:10122C0033FC0028F9D0204610BDC04600380140E0
:10123C001FB50D4C4FF4E1330093A3F5E133ADF83A
:10124C000430ADF80630ADF80830ADF80C3020465F
:10125C004FF00C036946ADF80A3001F01BFC204638
:10126C00012101F0FFFB1FBD003801401FB50D4CE3
:10127C004FF4E1330093A3F5E133ADF80430ADF84E
:10128C000630ADF80830ADF80C3020464FF00C03AA
:10129C006946ADF80A3001F0FDFB2046012101F052
:1012AC00E1FB1FBD00480040024B1A68024B9854EA
:1012BC007047C046B4010020A0010020024B1A6800
:1012CC00024B98547047C046B0010020900100209A
:1012DC00024B1A68024B98547047C0469801002084
:1012EC00A80100201E4A1378312B37D15378302BAC
:1012FC0034D19378312B0AD11A4B00221A601A4B35
:10130C001A601A4B1A601A4B1A681A4B25E0322BCA
:10131C000AD1144B00221A60134B1A60144B1A603A
:10132C00124B1A68144B18E0332B0AD10D4B0022C8
:10133C001A600E4B1A600E4B1A600B4B1A680F4B4F
:10134C000BE0342B0AD1084B00221A60074B1A60B1
:10135C00074B1A60034B1A68094B98547047C046E8
:10136C00A0010020B8010020880100208401002089
:10137C00A4010020AC0100208C010020940100206D
:10138C009C01002070B5894D894B2C6800221A6095
:10139C00002C40F0928000F029FF22462146204686
:1013AC0000F01CFF834800F0F9FE834A1378232BCE
:1013BC0007D101232B60814B1C60814B1C604623A1
:1013CC0013707D4B1B78302B77D17E4A0023137022
:1013DC007D4A1378312B4ED15378302B4BD19378E7
:1013EC00312B16D1FFF73AFD7848802101F04CFBE8
:1013FC000028F9D075480A2101F042FB4FF4FA702D
:10140C0000F094FD7148802101F03EFB0028F9D0DA
:10141C0047E0322B16D1FFF721FD6C48802101F0FB
:10142C0033FB0028F9D06948142101F029FB4FF453
:10143C00FA7000F07BFD6548802101F025FB002847
:10144C00F9D02EE0332B16D1FFF708FD5F48802131
:10145C0001F01AFB0028F9D05C481E2101F010FBAA
:10146C004FF4FA7000F062FD5848802101F00CFB3B
:10147C000028F9D015E0FFF7F1FC5448802101F069
:10148C0003FB0028F9D05148282101F0F9FA4FF458
:10149C00FA7000F04BFD4D48802101F0F5FA002860
:1014AC00F9D04A48002101F0EBFA444B00221A60B3
:1014BC00434B1A60404B46321A703C4D2C68012C41
:1014CC002AD1FFF7CBFC4248FEF758FE00F08EFE07
:1014DC0000200146024600F081FE3E4800F05EFE10
:1014EC00002021460246344C00F078FE3A4800F0C9
:1014FC0055FE207846280FD0FFF7E0FE2F4A1368E0
:10150C00013313602378232B03D102232B60002398
:10151C001360294B46221A70244D2B68022B2AD1BA
:10152C00FFF79CFC2D48FEF729FE00F05FFE002023
:10153C000146024600F052FE294800F02FFE002022
:10154C00012102461C4C00F049FE234800F026FE07
:10155C00207846280FD0FFF7BBFE194A13680133D9
:10156C0013602378232B03D103232B6000231360F8
:10157C00114B46221A700D4C2368032B4AD1FFF7EE
:10158C006DFC184918480A7803789A422ED14A788B
:10159C0043789A422AD18A7883789A4226D1CA789B
:1015AC00C3789A4222D10423236033E0C401002083
:1015BC00BC010020AC2D0008C0010020B0010020AF
:1015CC009801002067010020A00100200048004085
:1015DC00B62D0008DA2D0008C02E0008EA2D0008F0
:1015EC00172E000890010020A80100203848FEF7B3
:1015FC00C5FD00F0FBFD00200246014600F0EEFDAB
:10160C00344800F0CBFD4FF47A7000F08FFC324B75
:10161C0000221A60304C2368042B3FD1FFF71EFCCC
:10162C002E4A1378312B1DD15378302B1AD1937845
:10163C00312B0AD12A4A2B4913780B7053784B70F3
:10164C0093788B70D378CB7026E0322B18D1244A48
:10165C00244913780B7153784B7193788B71D37831
:10166C00CB7119E01E4A1F4913780B7253784B72D9
:10167C0093788B72D3780522CB72174B1A600DE0DE
:10168C00332BEFD1164A174913780B7353784B73DE
:10169C0093788B73D378CB73052323600E4C23681C
:1016AC00052B14D1FFF7DAFB0F48FEF767FD00F0AE
:1016BC009DFD00200146024600F090FD0B4800F015
:1016CC006DFD4FF47A7000F031FC0023236070BD87
:1016DC00262E0008332E0008C4010020A001002093
:1016EC009001002009000020412E00085A2E00080D
:1016FC008B4B00221A608B4B10B51B68002B34D11E
:10170C00FFF7ACFB8848802101F0BEF90028F9D026
:10171C0085487B2101F0B4F94FF4967000F006FC7B
:10172C008148802101F0B0F90028F9D000217E48D1
:10173C0001F0A6F900F05AFD00200146024600F027
:10174C004DFD7A4800F02AFD00200121024600F0F0
:10175C0045FD774800F022FD76490B782A2B04D101
:10176C00704A0123136045330B706E4B1C68012CBF
:10177C0063D1FFF773FB7048FEF700FD00F036FDF8
:10178C0000200146024600F029FD6C4800F006FDE1
:10179C00002021460246674C00F020FD684800F00E
:1017AC00FDFC2378462B48D0FFF758FB2078FFF739
:1017BC007BFD5D48802101F067F90028F9D05D4B75
:1017CC005948197801F05CF94FF4967000F0AEFBB3
:1017DC005548802101F058F90028F9D000215248D1
:1017EC0001F04EF9574A136801331360514B1B78C3
:1017FC002A2B1FD1FFF732FB4B48802101F044F913
:10180C000028F9D048487B2101F03AF94FF4967042
:10181C0000F08CFB4448802101F036F90028F9D007
:10182C004148002101F02CF93E4B02221A60454B35
:10183C0000221A603F4B46221A703A4B1B68022B4F
:10184C0040F0E281FFF70AFB3F4A1378312B40F05E
:10185C00AD815378302B40F0A9819378312B7DD119
:10186C003A48FEF78BFC00F0C1FC00200146024612
:10187C0000F0B4FC364800F091FC00200121024637
:10188C0000F0ACFC334800F089FC2A4B1B78462B4B
:10189C0000F0BA81FFF7E2FA2348802101F0F4F856
:1018AC000028F9D02048642101F0EAF84FF4967032
:1018BC0000F03CFB1C48802101F0E6F80028F9D030
:1018CC001C4C0021184801F0DBF82078FFF70AFDCA
:1018DC00214A1368013313602378232B40F047818E
:1018EC00FFF7BCFA1048802101F0CEF80028F9D09F
:1018FC000D487B2101F0C4F84FF4967000F016FBF4
:10190C000948802101F0C0F80028F9D006480021D0
:10191C0001F0B6F8034B03221A6000220E4BDFE0F5
:10192C00C4010020BC01002000480040692E0008C2
:10193C008D2E0008C0010020782E0008962E00087D
:10194C00892E0008B4010020A0010020A72E000859
:10195C00CD2E0008C02E0008A4010020322B5FD130
:10196C008548FEF70BFC00F041FC002001460246C6
:10197C0000F034FC814800F011FC002001210246EB
:10198C0000F02CFC7E4800F009FC7E4B1B78462BAB
:10199C0000F03A81FFF762FA7B48802101F074F87D
:1019AC000028F9D07848642101F06AF84FF4967059
:1019BC0000F0BCFA7448802101F066F80028F9D0D8
:1019CC00704C0021704801F05BF82078FFF78AFC1E
:1019DC006E4A1368013313602378232B40F0C780C1
:1019EC00FFF73CFA6848802101F04EF80028F9D046
:1019FC0065487B2101F044F84FF4967000F096FA9C
:101A0C006148802101F040F80028F9D05E4800219F
:101A1C0001F036F85E4B03221A6000225B4B5FE04C
:101A2C00332B5FD15B48FEF7A9FB00F0DFFB0020F6
:101A3C000146024600F0D2FB574800F0AFFB0020F5
:101A4C000121024600F0CAFB4D4800F0A7FB4D4BAC
:101A5C001B78462B00F0D880FFF700FA4A4880210B
:101A6C0001F012F80028F9D04748642101F008F879
:101A7C004FF4967000F05AFA4348802101F004F8B4
:101A8C000028F9D03F4C00213F4800F0F9FF2078A6
:101A9C00FFF728FC414A1368013313602378232B8A
:101AAC0065D1FFF7DBF93848802100F0EDFF002805
:101ABC00F9D035487B2100F0E3FF4FF4967000F02D
:101ACC0035FA3148802100F0DFFF0028F9D02E488C
:101ADC00002100F0D5FF2E4B03221A602F4B002261
:101AEC001A6044E0342B61D12D48FEF747FB00F01F
:101AFC007DFB00200146024600F070FB294800F0F7
:101B0C004DFB00200121024600F068FB1C4800F050
:101B1C0045FB1C4B1B78462B76D0FFF79FF91A48D8
:101B2C00802100F0B1FF0028F9D01748642100F0A3
:101B3C00A7FF4FF4967000F0F9F91348802100F0DC
:101B4C00A3FF0028F9D00F4C00210F4800F098FF9C
:101B5C002078FFF7C7FB14490B6801330B6023781F
:101B6C00232B04D10A4A0323136000230B60054B7B
:101B7C0046221A7048E0C046DC2E0008022F0008EE
:101B8C00C02E0008C0010020004800408401002045
:101B9C00BC010020112F0008372F000888010020FD
:101BAC00462F00086C2F0008B8010020FFF756F9EB
:101BBC00A248802100F068FF0028F9D09F487B21C3
:101BCC0000F05EFF4FF4967000F0B0F99B48802156
:101BDC0000F05AFF0028F9D00021984800F050FF7F
:101BEC009748FEF7CBFA00F001FB002002460146B5
:101BFC0000F0F4FA934800F0D1FA4FF47A7000F048
:101C0C0095F9914B01221A608F4B1B68032B40F006
:101C1C0013818E4A1378312B40F0B5805378302BDA
:101C2C0040F0B1809378312B39D1894989480A78B1
:101C3C0003789A4240F0EC804A7843789A4240F01C
:101C4C00E7808A7883789A4240F0E280CA78C37839
:101C5C009A4240F0DD808048FEF790FA00F0C6FA18
:101C6C0000200146024600F0B9FA7C4800F096FAD2
:101C7C00FFF7F4F87148802100F006FF0028F9D036
:101C8C006E480B2100F0FCFE4FF4967000F04EF9FC
:101C9C006A48802100F0F8FE0028F9D0ABE0322B26
:101CAC0039D16F496B480A7803799A4240F0B08079
:101CBC004A7843799A4240F0AB808A7883799A4289
:101CCC0040F0A680CA78C3799A4240F0A18065485A
:101CDC00FEF754FA00F08AFA00200146024600F0A2
:101CEC007DFA614800F05AFAFFF7B8F853488021A2
:101CFC0000F0CAFE0028F9D05048152100F0C0FEB3
:101D0C004FF4967000F012F94C48802100F0BCFEA4
:101D1C000028F9D06FE0332B35D154494D480A785F
:101D2C00037B9A4274D14A78437B9A4270D18A7869
:101D3C00837B9A426CD1CA78C37B9A4268D14C4857
:101D4C00FEF71CFA00F052FA00200146024600F0A1
:101D5C0045FA484800F022FAFFF780F8374880210E
:101D6C0000F092FE0028F9D034481F2100F088FEC4
:101D7C004FF4967000F0DAF83048802100F084FEC1
:101D8C000028F9D037E03C48FEF7F8F93B493148D8
:101D9C000A78037A9A423BD14A78437A9A4237D1ED
:101DAC008A78837A9A4233D1CA78C37A9A422FD1ED
:101DBC003348FEF7E3F900F019FA00200146024619
:101DCC0000F00CFA2F4800F0E9F9FFF747F81B4830
:101DDC00802100F059FE0028F9D01848292100F084
:101DEC004FFE4FF4967000F0A1F81448802100F0DB
:101DFC004BFE0028F9D01148002100F041FE4FF4B1
:101E0C007A7000F093F8204B01221A70013A11E01D
:101E1C001E48FEF7B3F900F0E9F90020024601462E
:101E2C0000F0DCF91A4800F0B9F94FF47A7000F0C0
:101E3C007DF80022044B1A6010BDC04600480040DB
:101E4C007B2F00088D2F0008BC010020A001002072
:101E5C00AC01002009000020972F0008A62F0008D5
:101E6C008C010020C02F0008CC2F0008940100200A
:101E7C00DA2F0008E62F0008F42F00089C01002040
:101E8C00FA2F00080630000867010020B42F000864
:101E9C00332E000810B5A0B9FEF7E0FF154B4FF438
:101EAC007A721A801B8814491448CB8000F0DAFC33
:101EBC0013484FF4807100F0B9FD11484FF40071D4
:101ECC0015E0012815D1FEF7C9FF0A4B4FF4FA6251
:101EDC001A801B8808490948CB8000F0C3FC0848CD
:101EEC004FF4007100F0A2FD05484FF4807100F032
:101EFC009FFD10BD48010020680100200008004033
:101F0C00000C0140034A136813B11368013B1360C2
:101F1C007047C04654010020034B1860024B1B68ED
:101F2C00002BFBD17047C0465401002010B504466D
:101F3C0004E04FF47A70FFF7EFFF013C002CF8D16E
:101F4C0010BDC04670B5044D04242C610220FFF76F
:101F5C00E3FF6C6170BDC04600100140304A0223A3
:101F6C0070B55361064611B1013B136101E00123C9
:101F7C0053612C492A4D4FF0F00310240B8002239F
:101F8C008B70CC70284600F0F7FC802240236A61ED
:101F9C006B61202316F0800F6B616C6118BF2A6196
:101FAC0016F0400F02D01E4B40221A6116F0200F83
:101FBC0002D01B4B20221A6116F0100F02D0184BC6
:101FCC0010221A61FFF7BEFF154A80214023516190
:101FDC00536120235361102316F0080F536118BF6F
:101FEC00116116F0040F02D00D4B40221A6116F04D
:101FFC00020F02D00A4B20221A6116F0010F02D0F8
:10200C00074B10221A61FFF79DFF054A80231361CD
:10201C0040231361202313611023136170BDC0464C
:10202C0000100140C80100202E4A022370B5136134
:10203C0010B1013B136101E0012353612A49294C82
:10204C004FF0F0030B8002254823CB708D70204697
:10205C0000F092FC042323612846FFF75DFFA36880
:10206C0003F01006A36813F0200F03D0002E14BF4A
:10207C00302620261B4B1B4C9B6813F0400F194B32
:10208C0018BF46F040069B6813F0800F18BF46F04F
:10209C008006042502206561FFF73EFF02202561C2
:1020AC00FFF73AFFA36813F0100F0E4B18BF46F062
:1020BC0001069B6813F0200F0A4B18BF46F002066E
:1020CC009B6813F0400F074B18BF46F004069B6843
:1020DC0013F0800F034B18BF46F0080604225A6118
:1020EC00304670BD00100140C801002010B5002022
:1020FC00FFF79AFF10F0800FF9D10420FFF70CFFC7
:10210C000020FFF791FF10BD10B5FFF7EFFF10BDDA
:10211C0010B50446FFF7EAFF20460121FFF71EFF2A
:10212C0010BDC04610B50446FFF7E0FF2046002165
:10213C00FFF714FF10BDC04600F00700C00070B5DB
:10214C0040F040000D46FFF7EDFF0024285D013400
:10215C00FFF7DEFF082CF9D170BDC04610B5044660
:10216C00FFF7D2FF0A2C0AD13F2894BF4020002051
:10217C00002814BFC0208020FFF7D4FF0CE01028EB
:10218C0001D1B03002E0502803D130300021FFF7EC
:10219C00E5FEE0B2FFF7BCFF10BDC04670B50546CA
:1021AC00002402E040B2FFF7D9FF285D013400287B
:1021BC00F8D170BD10B50620FFF7B4FF10BDC046B6
:1021CC0010B511B940F0800005E040306FEA406076
:1021DC006FEA5060C0B2FFF7A5FF10BD10B51446F2
:1021EC00FFF7EEFF2046FFF793FF10BD10B501205F
:1021FC00FFF798FF10BDC04610B500F071F90A4BFF
:10220C000A4A1B686FF00F01B3FBF2F323F07F4314
:10221C00074A013B5360074B83F82310002393605C
:10222C000733136010BDC0461C00002040420F0055
:10223C0010E000E000ED00E02DE9F0411A4C804682
:10224C002026FFF7D9FF10254FF47A50FFF764FED4
:10225C0026612561FFF776FE41F28830FFF75CFEC0
:10226C00FFF770FE4020FFF757FEFFF76BFE402094
:10227C00FFF752FE26616561FFF764FE4020FFF711
:10228C004BFE2820FFF74EFF0820FFF74BFFFFF710
:10229C00ADFFFFF78FFF054B48F0080083F8048073
:1022AC00FFF740FFBDE8F081001001405401002011
:1022BC007047C046FEE7C046FEE7C046FEE7C04694
:1022CC00FEE7C0467047C0467047C0467047C046E0
:1022DC0010B54FF4007000F061FA18B14FF40070B3
:1022EC0000F06AFA10BDC04610B5022000F056FA94
:1022FC0040B10548FDF742FF044B01221A70022041
:10230C0000F05AFA10BDC0461430000867010020D6
:10231C0010B5012000F042FA60B10748FDF72EFF1E
:10232C0006480A2100F0ACFB054B00221A70012074
:10233C0000F042FA10BDC0462530000800480040AD
:10234C006701002010B54FF08040012100F004FB24
:10235C0020B14FF08040012100F00AFB10BDC046B7
:10236C0010B55848012100F0F7FA002800F0A980B8
:10237C000121544800F0FCFA534A0321136801333D
:10238C00136093FBF1F201FB1233012B35D0022BBE
:10239C005FD0002B40F08C804C484FF4806100F0F3
:1023AC0045FB4A484FF4006100F042FB47484FF4AC
:1023BC00805100F03DFB4648102100F031FB08B184
:1023CC00332205E04248202100F02AFB28B13622B6
:1023DC00404B1A70FEF742FD6AE03D48402100F088
:1023EC001FFB08B13922F3E73948802100F018FBB4
:1023FC00384A00285AD0232356E034484FF48061E1
:10240C0000F016FB31484FF4006100F00FFB2F4831
:10241C004FF4805100F00CFB2D48102100F000FB14
:10242C0008B13222D4E72A48202100F0F9FA08B189
:10243C003522CDE72648402100F0F2FA08B13822C7
:10244C00C6E72348802100F0EBFA224A70B3302310
:10245C002AE01E484FF4806100F0EAFA1B484FF462
:10246C00006100F0E5FA19484FF4805100F0DEFAF3
:10247C001748102100F0D4FA08B13122A8E714480B
:10248C00202100F0CDFA08B13422A1E710484021F8
:10249C0000F0C6FA08B137229AE70D48802100F007
:1024AC00BFFA0C4A10B12A23137093E7462313701A
:1024BC00084B1978462904D0074B08481970FDF7CA
:1024CC001FFE10BD00040040CC0100200010014094
:1024DC0000080140D0010020C00100203630000867
:1024EC001748436803F00C03042B04D0082B06D0C8
:1024FC00144A154B17E0154A124B1A6014E0436846
:10250C004268C3F38343991C12F4803F03D1104BF0
:10251C000C4A4B4307E043680A4A13F4003F14BFCC
:10252C000C4B0A4B4B431360054B064A5B68C3F3D9
:10253C000313D31819791368CB4013607047C04646
:10254C00001002401C00002000127A00001BB70093
:10255C0000093D00808D5B003B4A82B0136843F05C
:10256C00010313605168394B01EA0303536013688C
:10257C0023F0847323F480331360136823F48023D3
:10258C001360536823F4FE0353604FF41F039360EE
:10259C00A3F51F0301930093136843F48033136076
:1025AC00294B1B6803F400330093019B0133019307
:1025BC00009B1BB9019BB3F5A06FF1D1224B1B689B
:1025CC0013F4003318BF01230093009B012B35D16A
:1025DC001F4A136843F010031360136823F00303BE
:1025EC001360136843F002031360A2F58052536822
:1025FC00536053685360536843F48063536053686B
:10260C0023F47C135360536843F4881353601368AA
:10261C0043F0807313600C4A136813F0007FFAD0F8
:10262C00536823F003035360536843F00203536071
:10263C00054B5B6803F00C03082BF9D1054B4FF0ED
:10264C0000629A6002B07047001002400000FFF870
:10265C000020024000ED00E0002103E00A4B5B5833
:10266C004350043109480A4B42189A42F6D3094A9E
:10267C0002E0002342F8043B074B9A42F9D3FFF7E0
:10268C006BFFFEF7F3FB7047B03000080000002032
:10269C004801002048010020D4010020FEE7000082
:1026AC0040F0BE60024B40F42020D8607047C0461A
:1026BC0000ED00E0C37890F800C0D3B1124B417824
:1026CC00DA68D243C2F30222C2F1040399400F2309
:1026DC00D340827813400B430C4A1B01DBB262449B
:1026EC0082F800330CF01F0201234FEA5C11934077
:1026FC0006E00CF01F02012393404FEA5C112031DD
:10270C00024A42F82130704700ED00E000E100E0A1
:10271C0021F0604121F07F01014B0143996070472A
:10272C0000ED00E0837910B590F804C004684BB359
:10273C001949E2430B6802EA03030B604B681A4029
:10274C004A600CF1804202F5823213682343136015
:10275C0004688B68E24302EA03038B60CB68407920
:10276C001A401028CA6006D18B6823438B60CB6853
:10277C002343CB600EE000F1804202F582321368F5
:10278C00234306E00CF1804202F58232136823EAFF
:10279C000403136010BDC04600040140054B1A68C9
:1027AC005B69034001D1184603E010420CBF0020C6
:1027BC000120704700040140014B58617047C0462E
:1027CC000004014003889AB2244B984212D003F5BE
:1027DC00006398420ED0B0F1804F0BD0A3F5983324
:1027EC00984207D003F58063984203D003F58063C9
:1027FC00984206D14FF68F7302EA03034A8843EAE4
:10280C000202174B98420AD003F58063984206D017
:10281C004FF6FF4302EA0303CA8843EA020202802E
:10282C008B8883850B8803850C4B98420FD003F55E
:10283C00006398420BD003F54063984207D003F530
:10284C008063984203D003F58063984201D10B7AE0
:10285C0003864FF0010383827047C046002C014071
:10286C0000100040038CF0B523F001031B041B0C7B
:10287C0003840C46018C838822899DB2038B21F042
:10288C0002019EB2638809041343090C9BB243EA0C
:10289C00010C1B4B278898420FD003F5006398421C
:1028AC000BD003F54063984207D003F58063984240
:1028BC0003D003F58063984216D163894FF6F77203
:1028CC000CEA02021A434FF6FB7302EA0303A288D6
:1028DC004FF6FF4143EA020CE389A28905EA0101A4
:1028EC0013439BB243EA01054FF68C7306EA0303CC
:1028FC003B4385800383E3888386A0F820C0F0BD2A
:10290C00002C014021B103889BB243F0010304E089
:10291C00038823F001031B041B0C03807047C04683
:10292C0022B183899BB241EA030303E083899BB202
:10293C0023EA010383817047018582827047C04678
:10294C00038B23F008031B041B0C194301837047F2
:10295C00C94389B201827047028A838911EA020055
:10296C009BB203D019420CBF002001207047C04617
:10297C00C94389B201827047F0B5CD780E8815F045
:10298C00100F18BF8B7805F00F0718BF1F4316F0F8
:10299C00FF0F20D004684FF0000C012303FA0CF356
:1029AC0003EA0601994210D14FEA8C020F2393409F
:1029BC0017FA02F224EA0303282D43EA020401D198
:1029CC00416102E0482D08BF01610CF1010CBCF122
:1029DC00080FE2D10460FF2E21D944684FF0000C9F
:1029EC0001230CF10802934003EA0601994210D12D
:1029FC004FEA8C020F23934017FA02F224EA0303E6
:102A0C00282D43EA020401D1416102E0482D08BFA0
:102A1C0001610CF1010CBCF1080FE1D14460F0BD77
:102A2C00836819420CBF0020012070470161704778
:102A3C004161704730B501F00305AD000F23AB4089
:102A4C00A840074C8908023154F8212022EA0302DD
:102A5C0044F8212054F82130184344F8210030BDAB
:102A6C000000014021B183899BB243F4005304E080
:102A7C00838923F400531B041B0C83817047C046CD
:102A8C00C905C90D81807047038819420CBF00200D
:102A9C0001207047038ACA8823F440531B041B0C83
:102AAC001343038282890B8930B50D46898822F441
:102ABC00B0520B43698922F00C020B431204120C26
:102ACC009BB213438381838AAA8923F440731B042A
:102ADC001B0C87B013430446838201A800F034F822
:102AEC00184B29689C42A38908BF04981BB218BFD5
:102AFC000398002B03DA192343434A0002E01923FD
:102B0C0043438A00B3FBF2F16420B1FBF0F31A01EA
:102B1C00130900FB1311A3891BB2002B06DACB009F
:102B2C003233B3FBF0F303F0070305E00B01323350
:102B3C00B3FBF0F303F00F0343EA02018BB22381E2
:102B4C0007B030BD0038014010B504461E4843683C
:102B5C0003F00C03042B02D0082B14D101E01B4B07
:102B6C0012E043684268C3F38343991C12F4803F1C
:102B7C0001D1174B05E0436813F4003F14BF154B0C
:102B8C00124B4B4300E0144B0F482360436813492E
:102B9C00C3F30313CB5C2268DA4062604368C3F36F
:102BAC000223CB5C32FA03F3A3604368C3F3C22362
:102BBC00CB5CDA40E2604368C3F38133C9180B7C09
:102BCC00B2FBF3F2226110BD00100240001BB700F3
:102BDC0000093D00808D5B0000127A00300000205F
:102BEC0021B1054A936940EA030303E0024A936961
:102BFC0023EA0003936170470010024021B1054A9B
:102C0C00D36940EA030303E0024AD36923EA0003D1
:102C1C00D361704700100240101C7047540200082A
:102C2C00A8060008A806000866020008A806000806
:102C3C00A8060008A8060008A8060008A8060008B0
:102C4C00A8060008700200088A020008A8060008FE
:102C5C008002000894020008A8060008F60200088A
:102C6C00000300080003000800030008000300082C
:102C7C00000300080003000800030008000300081C
:102C8C0000030008A8060008A8060008A80600080B
:102C9C00A8060008A8060008A8060008A806000850
:102CAC00A8060008A80600085A030008A603000896
:102CBC00A8060008A8060008A8060008A806000830
:102CCC00A8060008A8060008A8060008A806000820
:102CDC00A8060008A80600081C040008A80600089E
:102CEC00A8060008A806000864040008A806000846
:102CFC0038050008A8060008A8060008700500089A
:102D0C00A8060008A8060008A8060008A8060008DF
:102D1C00A8060008A8060008A8060008A8060008CF
:102D2C00A8060008A80600085A030008AE0300080D
:102D3C00A8060008A8060008A80600082403000836
:102D4C00AE030008A8060008A80600082E03000819
:102D5C00A8060008EA030008240400084A04000836
:102D6C0050030008A806000864040008A806000820
:102D7C0040050008A8060008A80600084E02000836
:102D8C002020202020202020202020202020202037
:102D9C003030303030303030303030303030303027
:102DAC00556E6C6F636B696E670070757368207419
:102DBC006865206E65772070617373776F72642E0F
:102DCC0020616E642070757368202723270070754E
:102DDC00736820746865206E6577502F5700707586
:102DEC00736820746865206E6577207061737377E3
:102DFC006F7264206F6E65206D6F72652E20616E30
:102E0C006420707573682027232700707573682001
:102E1C006F6E6365206D6F7265006E6F7420636FEB
:102E2C0072726563742100696E636F72726563748C
:102E3C0020502F5700636F6D706C65746520506166
:102E4C007373776F7264206368616E676500636883
:102E5C00616E67652074686520502F57004F706550
:102E6C00726174696E67206C6F636B007075736848
:102E7C002074686520526F6F6D2E6E6F20616E64CA
:102E8C00207075736820272A27007075736820746A
:102E9C00686520526F6F6D2E4E6F007075736820D1
:102EAC007468652070617373776F726420526F6FF2
:102EBC006D312E20616E6420707573682027232776
:102ECC00007075736820502F5720526F6F6D310052
:102EDC0070757368207468652070617373776F7296
:102EEC006420526F6F6D322E20616E64207075738A
:102EFC006820272327007075736820502F572052A5
:102F0C006F6F6D3200707573682074686520706126
:102F1C007373776F726420526F6F6D332E20616EF6
:102F2C0064207075736820272327007075736820E0
:102F3C00502F5720526F6F6D33007075736820746B
:102F4C0068652070617373776F726420526F6F6D58
:102F5C00342E20616E64207075736820272327003F
:102F6C007075736820502F5720526F6F6D34004E60
:102F7C006F7420657869737420526F6F6D2E6E6F4D
:102F8C00004E6F74206578697374006F70656E20E5
:102F9C00526F6F6D2E31303121006F70656E205283
:102FAC006F6F6D2E313031006E6F7420636F7272E3
:102FBC0065637400313032636F7272656374210023
:102FCC006F70656E20526F6F6D2E31303200313064
:102FDC0033636F727265637421006F70656E20527B
:102FEC006F6F6D2E31303300524F4F4D34003130F6
:102FFC0034636F727265637421006F70656E20525A
:10300C006F6F6D2E3130340045585449315F495241
:10301C005148616E646C65720045585449305F4983
:10302C00525148616E646C6572004B65793D256345
:10303C000A000000303132333435363738396162AA
:10304C006364656600000000303132333435363746
:10305C003839414243444546000000006275672000
:10306C00696E2076667072696E74663A206261646D
:10307C002062617365000000286E756C6C2900007D
:10308C0043000000432D5554462D3800432D534A20
:10309C0049530000432D4555434A5000432D4A499E
:0430AC0053000000CD
:1030B0000E1B111111111F1F0B31323334343536F1
:1030C00037313335373738393000000000A24A0431
:1030D00000000000000000000102030406070809C8
:1030E00000000000010203040102030406070809AE
:1030F0000204060848000020000000000000000054
:1031000000000000000000000000000000000000BF
:1031100000000000000000008C30000800000000EB
:10312000000000000000000000000000000000009F
:10313000000000000000000000000000000000008F
:10314000000000000000000000000000000000007F
:10315000000000000000000000000000000000006F
:10316000000000000000000000000000000000005F
:10317000000000000000000000000000000000004F
:10318000000000000000000000000000000000003F
:10319000000000000000000000000000000000002F
:1031A000000000000000000000000000000000001F
:1031B000000000000000000000000000000000000F
:1031C00000000000000000000000000000000000FF
:1031D00000000000000000000000000000000000EF
:1031E000000000000000000001000000430000009B
:0831F0000000000000000000D7
:040000050800010CE2
:00000001FF
